:1000000012C024C023C022C021C020C01FC01EC0F7
:100010001DC01CC01BC01AC019C018C017C016C014
:1000200015C014C013C011241FBECFE5D4E0DEBF3D
:10003000CDBF10E0A0E6B0E0E4E5F4E002C005903A
:100040000D92A439B107D9F7FDD102C2D9CF1F93C0
:10005000162F843079F08830C9F4E0918E00F09149
:100060008F00862F82958F700995E0919000F09116
:1000700091000995E0918E00F0918F00812F8F7093
:100080000995E0919000F091910009951F910895D4
:10009000E0917A00F0917B00099500000000E0916A
:1000A0008000F0918100099508951F93DF93CF930D
:1000B0000F92CDB7DEB7E0917E00F0917F000995F9
:1000C00081B381BB15E0E0917A00F0917B00099546
:1000D000812F8A95F1F780B38295807F8983E091A3
:1000E0008000F09181000995812F8A95F1F7E091C8
:1000F0007A00F0917B000995812F8A95F1F799811B
:1001000080B38F70892B8983E0918000F09181000A
:100110000995812F8A95F1F7898187FDD4CF81B325
:100120008F6081BBE0918400F091850009950F906C
:10013000CF91DF911F9108951F93182F88EC90E0C5
:100140000197F1F7E0917C00F0917D000995E09135
:100150008600F091870088E0612F0995E091820088
:10016000F091830009951F910895CF93DF93EC01DF
:1001700006C02196E0918800F09189000995888158
:100180008823B9F7DF91CF9108950895992787FDC6
:10019000909580FF02C0909A01C0909881FF02C0A4
:1001A000919A01C0919882FF02C0929A01C09298E0
:1001B00083FF02C0939A0895939808950F931F9315
:1001C00081B38F6081BBE0916E00F0916F00099563
:1001D000E0917000F09171000995E0917200F0914A
:1001E00073000995E0918000F09181000995E091FC
:1001F0008200F09183000995E0918400F0918500E0
:10020000099588EC90E020E931E0F9013197F1F7A8
:100210000197D9F7E0918600F091870084E063E0D0
:10022000099580E29EE40197F1F7E0918600F09154
:10023000870084E063E0099500E41FE1C8010197AD
:10024000F1F7E0918600F091870084E063E0099582
:10025000C8010197F1F7E0918600F091870084E0F2
:1002600062E00995C8010197F1F7E0918600F091ED
:10027000870084E062E00995C8010197F1F7E091F9
:100280008600F091870084E068E00995C801019735
:10029000F1F7E0918600F091870088E06CE0099525
:1002A000C8010197F1F7E0918600F091870088E09E
:1002B00061E00995C8010197F1F7E0918A00F0919A
:1002C0008B0080E690E00995C8010197F1F7E09175
:1002D0008600F091870088E060E4099500EF10E067
:1002E000C8010197F1F7E0917C00F0917D0009953C
:1002F000C8010197F1F7E0918800F09189008EE044
:100300000995C8010197F1F7E0918800F091890003
:100310008BE10995C8010197F1F7E0918800F09110
:10032000890081E10995C8010197F1F7E091880002
:10033000F091890081E10995C8010197F1F7E091F9
:100340008800F091890081E10995C8010197F1F7D2
:10035000E0918800F091890081E10995C801019739
:10036000F1F7E0918800F091890081E10995C801D9
:100370000197F1F7E0918800F09189008FE10995EC
:10038000C8010197F1F7E0918600F091870088E0BD
:1003900060E80995C8010197F1F7E0917C00F091C0
:1003A0007D000995C8010197F1F7E0917E00F09179
:1003B0007F000995C8010197F1F7E0918800F0915D
:1003C000890081E00995C8010197F1F71F910F910C
:1003D0000895DF93CF9300D000D0CDB7DEB7262F9E
:1003E000198290E49A8390E19B8390E59C83215845
:1003F000FE01E80FF11D6081620FE0918600F0912F
:10040000870088E009950F900F900F900F90CF9183
:10041000DF910895B89A0895B99A0895BA9A0895FF
:10042000B8980895B9980895BA980895C09A08950B
:10043000C19A0895C29A0895C0980895C1980895E0
:10044000C2980895E0916A00F0916B000995FFCF82
:04045000F894FFCF4E
:1004540054657374696E672E2E00DE00E9010A028A
:100464000C020E02100212021402160218021A02E0
:100474001C021E02200227009C00B500C500C60015
:0404840048005500D7
:00000001FF
