:1000000012C032C045C022C021C020C01FC01EC0C7
:100010001DC01CC01BC01AC019C018C017C016C014
:1000200015C014C013C011241FBECFE5D4E0DEBF3D
:10003000CDBF11E0A0E6B0E0E0E7F5E002C005903A
:100040000D92A631B107D9F77CD290C2D9CFA59A2B
:1000500081B381BB82B38C6C82BB85B785BF8BB704
:10006000806C8BBF789408951F920F920FB60F92F9
:1000700011248F93829BFECF80E38093F5008AB793
:1000800080648ABF8F910F900FBE0F901F901895BC
:100090001F920F920FB60F9211248F93839BFECF66
:1000A00080E48093F5008AB780688ABF8F910F90B3
:1000B0000FBE0F901F9018951F93162F843099F044
:1000C0008830E9F480E49FE10197F1F7E0919F0027
:1000D000F091A000862F82958F700995E091A10084
:1000E000F091A2000995E0919F00F091A000812F6E
:1000F0008F700995E091A100F091A20009951F91E0
:100100000895E0918B00F0918C00099500000000AB
:10011000E0919100F0919200099508951F93DF936B
:10012000CF930F92CDB7DEB7E0918F00F0919000A2
:10013000099584B384BB15E0E0918B00F0918C00AD
:100140000995812F8A95F1F783B38295807F898302
:10015000E0919100F09192000995812F8A95F1F735
:10016000E0918B00F0918C000995812F8A95F1F731
:10017000998183B38F70892B8983E0919100F091ED
:1001800092000995812F8A95F1F7898187FDD4CF57
:1001900084B38F6084BBE0919500F091960009953F
:1001A0000F90CF91DF911F9108951F93182F80EA30
:1001B0008A95F1F7E0918D00F0918E000995E0911C
:1001C0009700F091980088E0612F0995E0919300E5
:1001D000F091940009951F910895CF93DF93EC015E
:1001E00006C02196E0919900F0919A0009958881C6
:1001F0008823B9F7DF91CF9108950895992787FD56
:10020000909580FF02C0A89A01C0A89881FF02C003
:10021000A99A01C0A99882FF02C0AA9A01C0AA980F
:1002200083FF02C0AB9A0895AB9808950F931F9374
:1002300084B38F6084BBE0917F00F09180000995CA
:10024000E0918100F09182000995E0918300F091A6
:1002500084000995E0919100F09192000995E09158
:100260009300F09194000995E0919500F09196002B
:10027000099588EC90E020E931E0F9013197F1F738
:100280000197D9F7E0919700F091980084E063E03E
:10029000099580E29EE40197F1F7E0919700F091D3
:1002A000980084E063E0099500E41FE1C80101972C
:1002B000F1F7E0919700F091980084E063E00995F0
:1002C000C8010197F1F7E0919700F091980084E060
:1002D00062E00995C8010197F1F7E0919700F0916C
:1002E000980084E062E00995C8010197F1F7E09178
:1002F0009700F091980084E068E00995C8010197A3
:10030000F1F7E0919700F091980088E06CE0099592
:10031000E0919700F091980088E061E00995E09104
:100320009B00F0919C0082E690E0099588E893E1BB
:1003300020E931E0F9013197F1F70197D9F7E09120
:100340007D00F0917E0082E061E00995E0919B00E4
:10035000F0919C0081E790E0099580E197E220E927
:1003600031E0F9013197F1F70197D9F7E091970062
:10037000F091980088E061E00995E0917D00F091AE
:100380007E0081E061E009951F910F910895DF9350
:10039000CF9300D000D0CDB7DEB7262F198290E4DE
:1003A0009A8390E19B8390E59C832158FE01E80F9E
:1003B000F11D6081620FE0919700F091980088E054
:1003C00009950F900F900F900F90CF91DF910895A6
:1003D000B89A0895B99A0895BA9A0895B898089560
:1003E000B9980895BA980895C09A0895C19A089541
:1003F000C29A0895C0980895C1980895C298089522
:1004000080910E0190910F01909307018093060156
:10041000809110019091110190930901809308013E
:10042000809112019091130190930B0180930A0126
:10043000809114019091150190930D0180930C010E
:1004400008950F931F93E0917D00F0917E0081E06D
:1004500061E00995E0919B00F0919C0085EA90E0B5
:100460000995E0917D00F0917E0082E061E00995C0
:10047000E0919900F0919A008EE70995E09199003A
:10048000F0919A0080E20995E0919B00F0919C0028
:100490008091060190910701099510E000E5809197
:1004A000F5008035E1F3E0917D00F0917E0082E07F
:1004B00061E00995E0919B00F0919C0086EB90E053
:1004C00009958091F500803319F0803441F708C018
:1004D000133010F41F5F0DC0133059F410E009C041
:1004E000812F8150833010F4182F03C0112309F499
:1004F00013E0E0917D00F0917E0082E061E00995DB
:10050000E0919900F0919A008EE70995E0919900A9
:10051000F0919A0080E20995E12FF0E0EE0FFF1FC5
:10052000EF5FFE4F20919B0030919C00858196816A
:10053000F90109950093F500B2CF08950895089543
:100540000895E0917B00F0917C000995E0916000B6
:10055000F09161000995E091F100F091F2000995A8
:10056000E091F300F091F4000995FFCFF894FFCFEC
:100570002700496E697469616C697A6174696F6E8C
:1005800000434F4D504C45544544001601C701E807
:1005900001EA01EC01EE01F001F201F401F601F8CB
:1005A00001FA01FC01FE015C00D500ED00FD00FE3A
:1005B0000081008E002D2D2D2D2D204D656E752076
:1005C0002D2D2D2D2D00202020202020202020200A
:1005D00020202020202000004574616C6F6E204C8C
:1005E000454400507265666572656E6365730043CD
:1005F00068616E6E656C730050726F66696C6573CE
:100600000000022102509D029E029F02A0029D0254
:100610009E029F02A002C700C700C700C700C80013
:06062000D300DF00E8003A
:00000001FF
