:1000000012C024C023C022C021C020C01FC01EC0F7
:100010001DC01CC01BC01AC019C018C017C016C014
:1000200015C014C013C011241FBECFE5D4E0DEBF3D
:10003000CDBF11E0A0E6B0E0EAE5F4E002C0059033
:100040000D92A230B107D9F7F6D105C2D9CF1F93CF
:10005000162F843099F08830E9F480E49FE101970D
:10006000F1F7E0919D00F0919E00862F82958F70B0
:100070000995E0919F00F091A0000995E0919D0005
:10008000F0919E00812F8F700995E0919F00F09173
:10009000A00009951F910895E0918900F0918A00D0
:1000A000099500000000E0918F00F0919000099503
:1000B00008951F93DF93CF930F92CDB7DEB7E091F2
:1000C0008D00F0918E00099581B381BB15E0E09120
:1000D0008900F0918A000995812F8A95F1F780B304
:1000E0008295807F8983E0918F00F091900009953F
:1000F000812F8A95F1F7E0918900F0918A000995A6
:10010000812F8A95F1F7998180B38F70892B89832C
:10011000E0918F00F09190000995812F8A95F1F779
:10012000898187FDD4CF81B38F6081BBE09193003B
:10013000F091940009950F90CF91DF911F91089550
:100140001F93182F80EA8A95F1F7E0918B00F091C8
:100150008C000995E0919500F091960088E0612F60
:100160000995E0919100F091920009951F910895F1
:10017000CF93DF93EC0106C02196E0919700F091B8
:100180009800099588818823B9F7DF91CF91089568
:100190000895992787FD909580FF02C0909A01C02D
:1001A000909881FF02C0919A01C0919882FF02C08D
:1001B000929A01C0929883FF02C0939A08959398EF
:1001C00008950F931F9381B38F6081BBE0917D00F1
:1001D000F0917E000995E0917F00F09180000995F3
:1001E000E0918100F09182000995E0918F00F091FB
:1001F00090000995E0919100F09192000995E091AD
:100200009300F0919400099588EC90E020E931E0AA
:10021000F9013197F1F70197D9F7E0919500F09145
:10022000960084E063E0099580E29EE40197F1F78F
:10023000E0919500F091960084E063E0099500E478
:100240001FE1C8010197F1F7E0919500F091960048
:1002500084E063E00995C8010197F1F7E09195000A
:10026000F091960084E062E00995C8010197F1F7EA
:10027000E0919500F091960084E062E00995C80154
:100280000197F1F7E0919500F091960084E068E025
:100290000995C8010197F1F7E0919500F09196005A
:1002A00088E06CE00995E0919500F091960088E077
:1002B00061E00995E0919900F0919A0080E690E064
:1002C000099588E893E120E931E0F9013197F1F7E8
:1002D0000197D9F7E0917B00F0917C0082E061E02A
:1002E0000995E0919900F0919A008FE690E00995C8
:1002F00080E197E220E931E0F9013197F1F70197C8
:10030000D9F7E0919500F091960088E061E00995B9
:10031000E0917B00F0917C0081E061E009951F9104
:100320000F910895DF93CF9300D000D0CDB7DEB703
:10033000262F198290E49A8390E19B8390E59C8319
:100340002158FE01E80FF11D6081620FE0919500D8
:10035000F091960088E009950F900F900F900F9004
:10036000CF91DF910895B89A0895B99A0895BA9AED
:100370000895B8980895B9980895BA980895C09ABC
:100380000895C19A0895C29A0895C0980895C19891
:100390000895C29808958091FA009091FB0090937F
:1003A000F3008093F2008091FC009091FD00909307
:1003B000F5008093F4008091FE009091FF009093EF
:1003C000F7008093F60080910001909101019093D5
:1003D000F9008093F8000895E0917B00F0917C0093
:1003E00081E061E00995E0919900F0919A0083EA3B
:1003F00090E00995E0917B00F0917C0082E061E063
:100400000995E0919700F09198008EE70995E091A9
:100410009700F091980080E20995E0919900F091A1
:100420009A008091F2009091F30009950895089543
:10043000089508950895E0917900F0917A00099562
:10044000E091DE00F091DF000995E091E000F0918D
:0A045000E1000995FFCFF894FFCFFB
:10045A00496E697469616C697A6174696F6E004387
:10046A004F4D504C4554454400E1009201B301B54B
:10047A0001B701B901BB01BD01BF01C101C301C57A
:10048A0001C701C9012700A000B800C800C9004C73
:10049A000059002D2D2D2D2D204D656E75202D2DE9
:1004AA002D2D2D00004574616C6F6E204C45440063
:1004BA00507265666572656E636573004368616E46
:1004CA006E656C730050726F66696C657300CB0160
:1004DA00EC011702180219021A021702180219026D
:1004EA001A02B400B400B400B400B500C000CC00D5
:0204FA00D5002B
:00000001FF
