:1000000012C032C043C022C021C020C01FC01EC0C9
:100010001DC01CC01BC01AC019C018C017C016C014
:1000200015C014C013C011241FBECFE5D4E0DEBF3D
:10003000CDBF11E0A0E6B0E0E0E9F7E002C0059036
:100040000D92AC36B107D9F78CD3A0C3D9CFA59AFE
:1000500081B381BB82B38C6C82BB85B785BF8BB704
:10006000806C8BBF78940895829BFECF80E3809351
:10007000FB0088EB9BE020E931E0F9013197F1F7D3
:100080000197D9F78AB780648ABF1895839BFECF02
:1000900080E18093FB0088EB9BE020E931E0F901EF
:1000A0003197F1F70197D9F78AB780688ABF189519
:1000B0001F93162F843099F08830E9F480E49FE193
:1000C0000197F1F7E0919F00F091A000862F8295B3
:1000D0008F700995E091A100F091A2000995E0913F
:1000E0009F00F091A000812F8F700995E091A100F1
:1000F000F091A20009951F910895E0918B00F09175
:100100008C00099500000000E0919100F0919200B0
:10011000099508951F93DF93CF930F92CDB7DEB764
:10012000E0918F00F0919000099584B384BB15E0B5
:10013000E0918B00F0918C000995812F8A95F1F761
:1001400083B38295807F8983E0919100F091920042
:100150000995812F8A95F1F7E0918B00F0918C0041
:100160000995812F8A95F1F7998183B38F70892B37
:100170008983E0919100F09192000995812F8A95F1
:10018000F1F7898187FDD4CF84B38F6084BBE09180
:100190009500F091960009950F90CF91DF911F91F6
:1001A00008951F93182F80EA8A95F1F7E0918D004A
:1001B000F0918E000995E0919700F091980088E009
:1001C000612F0995E0919300F091940009951F919A
:1001D0000895CF93DF93EC0106C02196E09199003A
:1001E000F0919A00099588818823B9F7DF91CF9122
:1001F00008950895992787FD909580FF02C0A89AD9
:1002000001C0A89881FF02C0A99A01C0A99882FFE5
:1002100002C0AA9A01C0AA9883FF02C0AB9A0895AF
:10022000AB9808950F931F9384B38F6084BBE091C4
:100230007F00F09180000995E0918100F0918200AB
:100240000995E0918300F09184000995E091910077
:10025000F09192000995E0919300F0919400099536
:10026000E0919500F0919600099588EC90E020E9E6
:1002700031E0F9013197F1F70197D9F7E091970053
:10028000F091980084E063E0099580E29EE4019794
:10029000F1F7E0919700F091980084E063E0099510
:1002A00000E41FE1C8010197F1F7E0919700F09198
:1002B000980084E063E00995C8010197F1F7E091A7
:1002C0009700F091980084E062E00995C8010197D9
:1002D000F1F7E0919700F091980084E062E00995D1
:1002E000C8010197F1F7E0919700F091980084E040
:1002F00068E00995C8010197F1F7E0919700F09146
:10030000980088E06CE00995E0919700F0919800E2
:1003100088E061E00995E0919B00F0919C0082E605
:1003200090E0099588E893E120E931E0F9013197FF
:10033000F1F70197D9F7E0917D00F0917E0082E01E
:1003400061E00995E0919B00F0919C0081E790E0CD
:10035000099580E197E220E931E0F9013197F1F761
:100360000197D9F7E0919700F091980088E061E05B
:100370000995E0917D00F0917E0081E061E00995B2
:100380001F910F910895DF93CF9300D000D0CDB788
:10039000DEB7262F198290E49A8390E19B8390E543
:1003A0009C832158FE01E80FF11D6081620FE091EE
:1003B0009700F091980088E009950F900F900F90AA
:1003C0000F90CF91DF910895B89A0895B99A089542
:1003D000BA9A0895B8980895B9980895BA98089562
:1003E000C09A0895C19A0895C29A0895C098089530
:1003F000C1980895C2980895AF92BF92CF92DF92AC
:10040000EF92FF920F931F9343ED52E050934901F7
:100410004093480124ED32E030934B0120934A0190
:1004200050934D0140934C0130934F0120934E0166
:1004300065EAC62E60E0D62ED0925101C0925001DE
:1004400003EB10E01093530100935201E0ECF0E055
:10045000F0935501E0935401A4ECB0E0B0935F0138
:10046000A0935E0190EDA92E90E0B92EB0926B01A1
:10047000A0926A0189EDE82E80E0F82EF0926501E5
:10048000E09264018CEF91E09093F8008093F70084
:100490008DE693E09093FA008093F90080E58093D5
:1004A000FB001092FD001092FC001092FE0083E011
:1004B0008093FF006DEC72E0709301016093000186
:1004C00085ED92E0909303018093020186ED92E026
:1004D000909305018093040187ED92E090930701CA
:1004E00080930601F0932901E0932801D0922B011B
:1004F000C0922A0110932D0100932C0182EE90E00E
:1005000090932F0180932E01B0933101A09330017D
:100510009093330180933201E7EFF0E096AF85AF1F
:100520009093370180933601F0923901E0923801BF
:1005300090933B0180933A0190933D0180933C015D
:1005400090933F0180933E01B0924101A0924001FF
:10055000909343018093420190934501809344011D
:1005600090934701809346017093090160930801BD
:1005700050930B0140930A0130930D0120930C011D
:1005800010920F0110920E011F910F91FF90EF90AA
:10059000DF90CF90BF90AF9008951092FE0082E060
:1005A0008093FF000895089508950895089508958B
:1005B0001F931091FD001123E9F0E0917D00F0916F
:1005C0007E0081E061E009951150E091FC00F0E0CF
:1005D000EE0FFF1FEE0FFF1FE10FF11DEE0FFF1FCC
:1005E000E15EFE4F20919B0030919C0081859285B9
:1005F000F90109958091FB00803321F0803409F0E6
:1006000067C013C09091FC002091FE00921730F05B
:100610008091FF00981710F49F5F12C08091FF0037
:100620009817B9F42093FC0014C09091FC0020911D
:10063000FE00291740F48091FF00891720F09150A7
:100640009093FC0006C0921721F48091FF008093E4
:10065000FC00E0917D00F0917E0082E061E0099570
:10066000E0919900F0919A008EE70995E091990048
:10067000F0919A0080E20995E0917D00F0917E0072
:1006800082E063E00995E0919B00F0919C0083EE8D
:1006900090E00995E0917D00F0917E0082E063E0BA
:1006A00009958091FD00E091FC00F0E0EE0FFF1F46
:1006B000EE0FFF1FE80FF11DEE0FFF1FE15EFE4F73
:1006C00020919B0030919C0081859285F9010995CC
:1006D00080E58093FB001F910895A59AE091970013
:1006E000F091980088E061E00995E0917D00F0913B
:1006F0007E0081E061E00995E0919B00F0919C0013
:1007000082EF90E00995E0917D00F0917E0082E01B
:1007100061E00995E0919900F0919A008EE70995C2
:10072000E0919900F0919A0080E20995E0917D00B6
:10073000F0917E0082E063E00995E0919B00F091EA
:100740009C008091280190912901099531DF8091C9
:10075000FB0000008035E9F3F9CF82E0089583E0E3
:100760000895E0917B00F0917C000995E091600094
:10077000F09161000995E091F700F091F80009957A
:10078000E091F900F091FA000995FFCFF894FFCFBE
:100790002700496E697469616C697A6174696F6E6A
:1007A00000434F4D504C45544544001201C301E4F1
:1007B00001E601E801EA01EC01EE01F001F201F4C9
:1007C00001F601F801FA015800D100E900F900FA38
:1007D000007D008A0050726573657420636F6C6FD2
:1007E000727300437573746F6D20636F6C6F72006A
:1007F0004C454400507265666572656E63657300B2
:1008000050726F66696C6573004368616E6E656CEB
:1008100073000020202020202020202020202020C5
:1008200020004D656E7500FC010000000000000016
:1008300000000000000000000000000000000000B8
:1008400000000000000000000000000000000000A8
:100850000000000000000000000000000000000098
:100860000000000000000000000000000000000088
:100870000000000000000000000000000000000078
:100880000000000000000000000000000000000068
:0C0890000000000000000000000000005C
:00000001FF
